{
  "contractName": "Adoptar",
  "abi": [
    {
      "constant": true,
      "inputs": [
        {
          "internalType": "uint256",
          "name": "",
          "type": "uint256"
        }
      ],
      "name": "perros",
      "outputs": [
        {
          "internalType": "address",
          "name": "",
          "type": "address"
        }
      ],
      "payable": false,
      "stateMutability": "view",
      "type": "function"
    },
    {
      "constant": false,
      "inputs": [
        {
          "internalType": "uint256",
          "name": "perroIndex",
          "type": "uint256"
        }
      ],
      "name": "adoptar",
      "outputs": [
        {
          "internalType": "bool",
          "name": "",
          "type": "bool"
        }
      ],
      "payable": false,
      "stateMutability": "nonpayable",
      "type": "function"
    },
    {
      "constant": true,
      "inputs": [],
      "name": "getPerros",
      "outputs": [
        {
          "internalType": "address[10]",
          "name": "",
          "type": "address[10]"
        }
      ],
      "payable": false,
      "stateMutability": "view",
      "type": "function"
    }
  ],
  "bytecode": "0x608060405234801561001057600080fd5b50610394806100206000396000f3fe608060405234801561001057600080fd5b50600436106100415760003560e01c806318e5001d146100465780633a05b9fc146100b4578063bc5e9c50146100fa575b600080fd5b6100726004803603602081101561005c57600080fd5b8101908080359060200190929190505050610140565b604051808273ffffffffffffffffffffffffffffffffffffffff1673ffffffffffffffffffffffffffffffffffffffff16815260200191505060405180910390f35b6100e0600480360360208110156100ca57600080fd5b8101908080359060200190929190505050610173565b604051808215151515815260200191505060405180910390f35b6101026102bb565b6040518082600a60200280838360005b8381101561012d578082015181840152602081019050610112565b5050505090500191505060405180910390f35b600081600a811061014d57fe5b016000915054906101000a900473ffffffffffffffffffffffffffffffffffffffff1681565b6000808210158015610186575060098211155b6101f8576040517f08c379a00000000000000000000000000000000000000000000000000000000081526004018080602001828103825260158152602001807f4e6f2065786973746520656c20706572726f206964000000000000000000000081525060200191505060405180910390fd5b6000809050600073ffffffffffffffffffffffffffffffffffffffff16600084600a811061022257fe5b0160009054906101000a900473ffffffffffffffffffffffffffffffffffffffff1673ffffffffffffffffffffffffffffffffffffffff1614156102b25733600084600a811061026e57fe5b0160006101000a81548173ffffffffffffffffffffffffffffffffffffffff021916908373ffffffffffffffffffffffffffffffffffffffff160217905550600190505b80915050919050565b6102c361033c565b6000600a806020026040519081016040528092919082600a8015610332576020028201915b8160009054906101000a900473ffffffffffffffffffffffffffffffffffffffff1673ffffffffffffffffffffffffffffffffffffffff16815260200190600101908083116102e8575b5050505050905090565b604051806101400160405280600a9060208202803883398082019150509050509056fea265627a7a7231582023d88b46ece1a90d89cc39516a1076694517c759d258b283da6570f0791f9cbd64736f6c63430005100032",
  "source": "pragma solidity ^0.5.16;\r\n\r\ncontract Adoptar {\r\n\r\n    address[10] public perros;\r\n\r\n    function adoptar(uint perroIndex) public returns (bool){\r\n        require( perroIndex >= 0 && perroIndex <= 9 , \"No existe el perro id\");\r\n        bool adoptado = false;\r\n\r\n        if ( perros[perroIndex] == address(0) ){\r\n            perros[perroIndex] = msg.sender;\r\n            adoptado = true;\r\n        }\r\n\r\n        return adoptado;\r\n    }\r\n\r\n    function getPerros() public view returns ( address[10] memory ) {\r\n        return perros;\r\n    }\r\n\r\n\r\n}\r\n",
  "sourcePath": "C:\\Users\\infauraga\\Desktop\\bnbtest\\contracts\\Adoptar.sol",
  "compiler": {
    "name": "solc",
    "version": "0.5.16+commit.9c3226ce.Emscripten.clang"
  },
  "schemaVersion": "3.4.7",
  "updatedAt": "2022-06-02T07:44:53.638Z",
  "networkType": "ethereum",
  "devdoc": {
    "methods": {}
  },
  "userdoc": {
    "methods": {}
  }
}